{
  "contractName": "TrustFund",
  "abi": [
    {
      "inputs": [],
      "stateMutability": "nonpayable",
      "type": "constructor"
    },
    {
      "inputs": [],
      "name": "admin",
      "outputs": [
        {
          "internalType": "address",
          "name": "",
          "type": "address"
        }
      ],
      "stateMutability": "view",
      "type": "function"
    },
    {
      "inputs": [
        {
          "internalType": "address",
          "name": "",
          "type": "address"
        }
      ],
      "name": "kids",
      "outputs": [
        {
          "internalType": "uint256",
          "name": "amount",
          "type": "uint256"
        },
        {
          "internalType": "uint256",
          "name": "maturity",
          "type": "uint256"
        },
        {
          "internalType": "bool",
          "name": "paid",
          "type": "bool"
        }
      ],
      "stateMutability": "view",
      "type": "function"
    },
    {
      "inputs": [
        {
          "internalType": "address",
          "name": "kid",
          "type": "address"
        },
        {
          "internalType": "uint256",
          "name": "ttMaturity",
          "type": "uint256"
        }
      ],
      "name": "addKid",
      "outputs": [],
      "stateMutability": "payable",
      "type": "function"
    },
    {
      "inputs": [],
      "name": "withDraw",
      "outputs": [],
      "stateMutability": "nonpayable",
      "type": "function"
    }
  ],
  "bytecode": "0x608060405234801561001057600080fd5b5033600160006101000a81548173ffffffffffffffffffffffffffffffffffffffff021916908373ffffffffffffffffffffffffffffffffffffffff160217905550610900806100616000396000f3fe60806040526004361061003f5760003560e01c80630fdb1c10146100445780632438628c1461005b57806340990e301461009a578063f851a440146100b6575b600080fd5b34801561005057600080fd5b506100596100e1565b005b34801561006757600080fd5b50610082600480360381019061007d91906104ea565b610274565b6040516100919392919061054b565b60405180910390f35b6100b460048036038101906100af91906105ae565b6102ab565b005b3480156100c257600080fd5b506100cb610461565b6040516100d891906105fd565b60405180910390f35b60008060003373ffffffffffffffffffffffffffffffffffffffff1673ffffffffffffffffffffffffffffffffffffffff1681526020019081526020016000209050428160010154111561016a576040517f08c379a000000000000000000000000000000000000000000000000000000000815260040161016190610675565b60405180910390fd5b60008160000154116101b1576040517f08c379a00000000000000000000000000000000000000000000000000000000081526004016101a8906106e1565b60405180910390fd5b600015158160020160009054906101000a900460ff16151514610209576040517f08c379a00000000000000000000000000000000000000000000000000000000081526004016102009061074d565b60405180910390fd5b60018160020160006101000a81548160ff0219169083151502179055503373ffffffffffffffffffffffffffffffffffffffff166108fc82600001549081150290604051600060405180830381858888f19350505050158015610270573d6000803e3d6000fd5b5050565b60006020528060005260406000206000915090508060000154908060010154908060020160009054906101000a900460ff16905083565b600160009054906101000a900473ffffffffffffffffffffffffffffffffffffffff1673ffffffffffffffffffffffffffffffffffffffff163373ffffffffffffffffffffffffffffffffffffffff161461033b576040517f08c379a0000000000000000000000000000000000000000000000000000000008152600401610332906107b9565b60405180910390fd5b60008060003373ffffffffffffffffffffffffffffffffffffffff1673ffffffffffffffffffffffffffffffffffffffff16815260200190815260200160002060000154146103bf576040517f08c379a00000000000000000000000000000000000000000000000000000000081526004016103b690610825565b60405180910390fd5b604051806060016040528034815260200182426103dc9190610874565b8152602001600015158152506000808473ffffffffffffffffffffffffffffffffffffffff1673ffffffffffffffffffffffffffffffffffffffff168152602001908152602001600020600082015181600001556020820151816001015560408201518160020160006101000a81548160ff0219169083151502179055509050505050565b600160009054906101000a900473ffffffffffffffffffffffffffffffffffffffff1681565b600080fd5b600073ffffffffffffffffffffffffffffffffffffffff82169050919050565b60006104b78261048c565b9050919050565b6104c7816104ac565b81146104d257600080fd5b50565b6000813590506104e4816104be565b92915050565b600060208284031215610500576104ff610487565b5b600061050e848285016104d5565b91505092915050565b6000819050919050565b61052a81610517565b82525050565b60008115159050919050565b61054581610530565b82525050565b60006060820190506105606000830186610521565b61056d6020830185610521565b61057a604083018461053c565b949350505050565b61058b81610517565b811461059657600080fd5b50565b6000813590506105a881610582565b92915050565b600080604083850312156105c5576105c4610487565b5b60006105d3858286016104d5565b92505060206105e485828601610599565b9150509250929050565b6105f7816104ac565b82525050565b600060208201905061061260008301846105ee565b92915050565b600082825260208201905092915050565b7f746f6f206561726c790000000000000000000000000000000000000000000000600082015250565b600061065f600983610618565b915061066a82610629565b602082019050919050565b6000602082019050818103600083015261068e81610652565b9050919050565b7f6f6e6c79206b69642063616e20646f2074686973000000000000000000000000600082015250565b60006106cb601483610618565b91506106d682610695565b602082019050919050565b600060208201905081810360008301526106fa816106be565b9050919050565b7f7061696420616c72656164790000000000000000000000000000000000000000600082015250565b6000610737600c83610618565b915061074282610701565b602082019050919050565b600060208201905081810360008301526107668161072a565b9050919050565b7f61646d696e206f6e6c7900000000000000000000000000000000000000000000600082015250565b60006107a3600a83610618565b91506107ae8261076d565b602082019050919050565b600060208201905081810360008301526107d281610796565b9050919050565b7f6b696420616c7265616479206578697374730000000000000000000000000000600082015250565b600061080f601283610618565b915061081a826107d9565b602082019050919050565b6000602082019050818103600083015261083e81610802565b9050919050565b7f4e487b7100000000000000000000000000000000000000000000000000000000600052601160045260246000fd5b600061087f82610517565b915061088a83610517565b9250827fffffffffffffffffffffffffffffffffffffffffffffffffffffffffffffffff038211156108bf576108be610845565b5b82820190509291505056fea2646970667358221220f715fe07ef9bfb1cb03328598cdbd271f0c01b46594ca019333565457c9bc1d364736f6c63430008090033",
  "immutableReferences": {},
  "source": "pragma solidity ^0.8.5;\r\n\r\ncontract TrustFund {\r\n    struct Kid{\r\n        uint amount;\r\n        uint maturity;\r\n        bool paid;\r\n    }\r\n    \r\n    mapping (address=>Kid) public kids;\r\n    address public admin;\r\n\r\n\r\n    constructor(){\r\n        admin = msg.sender;\r\n    }\r\n    \r\n    function addKid(address kid, uint ttMaturity) external payable{\r\n        require(msg.sender == admin, 'admin only');\r\n        require(kids[msg.sender].amount == 0, 'kid already exists');\r\n        kids[kid] = Kid(msg.value, block.timestamp + ttMaturity, false);\r\n    }\r\n\r\n    function withDraw() external{\r\n        Kid storage kid = kids[msg.sender];\r\n        require(kid.maturity <= block.timestamp, 'too early');\r\n        require(kid.amount > 0, 'only kid can do this');\r\n        require(kid.paid == false, 'paid already');\r\n        kid.paid = true;\r\n        payable(msg.sender).transfer(kid.amount);\r\n    }\r\n}",
  "sourcePath": "D:\\Code\\blockchain\\step 1 - smart contract\\contracts\\TrustFund.sol",
  "compiler": {
    "name": "solc",
    "version": "0.8.9+commit.e5eed63a.Emscripten.clang"
  },
  "schemaVersion": "3.4.3",
  "updatedAt": "2021-11-11T18:33:19.849Z",
  "devdoc": {
    "kind": "dev",
    "methods": {},
    "version": 1
  },
  "userdoc": {
    "kind": "user",
    "methods": {},
    "version": 1
  }
}